:100000004CC066C065C064C063C062C0E2C060C06E
:100010005FC084C25DC05CC05BC05AC059C058C0DC
:1000200057C056C055C076C077C07BC07FC082C065
:1000300088C08AC08FC093C095C09AC0A1C0A7C015
:1000400000000000000000000003040600000000A3
:100050000000000001020408102040800102040892
:100060001020010204081020040404040404040401
:100070000202020202020303030303030000000062
:100080003600330030000000000038003500320038
:100090000000000037003400310011241FBECFE5FE
:1000A000D4E0DEBFCDBF10E0A0E6B0E0E0E4F7E0D2
:1000B00002C005900D92A636B107D9F720E0A6E65A
:1000C000B0E001C01D92A137B207E1F70ED136C3EF
:1000D00097CFC19AC298C098089587B38F6087BBA5
:1000E00088B3887F88BBBC9A84B38F6184BB81B39B
:1000F000806C81BB81B3837D81BB82B38C6282BB08
:10010000089590E08D30910508F048C0FC01ED5E47
:10011000FF4F0994C49824C0C4989798AA98A998A6
:100120000DC0C49A979AAA9AA99826C0C49A97987B
:10013000AA9A13C0C49A9798AA98A99AA89A969826
:100140001DC0C49A979802C0C49A979AAA9AA99A6D
:10015000A89A1BC0C4989798AA98A99807C0C49A4F
:10016000979A02C0C49A9798AA9AA99AA89A05C081
:10017000C49A979AAA98A99AA898969AAB9A089519
:10018000C49A979AAA98A99AA898969A06C0C498C9
:100190009798AA98A998A8989698AB9808958130AE
:1001A00029F018F0823031F0089593CFC198C29AA7
:1001B000C0980895C198C298C09A0895009741F0D8
:1001C000EFE9FFE03197F1F700C000000197F6CFAB
:1001D00008951F920F920FB60F9211242F933F9301
:1001E0004F935F936F937F938F939F93AF93BF933F
:1001F000EF93FF9389B78F7E89BF789480916600D3
:10020000909167008130910581F048F00297A1F448
:1002100082E0C5DF80916000909161000CC059DFE1
:10022000809164009091650006C081E0B8DF809104
:1002300062009091630065DF809166009091670095
:10024000019690936700809366008091660090917C
:100250006700039721F4109267001092660089B737
:10026000806189BFFF91EF91BF91AF919F918F9175
:100270007F916F915F914F913F912F910F900FBEA2
:100280000F901F9018950F931F93CF93DF931F929A
:10029000CDB7DEB78C01798344D27981672FC8014D
:1002A00001960F90DF91CF911F910F913AC21F934A
:1002B000CF93DF93EC012DD2182FCE01019629D2D6
:1002C000282F30E0922F8827810F911DDF91CF9149
:1002D0001F91089581E0E1D1892BE1F781E0DDD123
:1002E000892BE1F387EE91E163C1CF93DF9300D0D7
:1002F0001F92CDB7DEB71A82198265D1EEDE60E0BB
:1003000083E192D160E085E08FD160E081E08CD123
:10031000F8948BE08EBD1FBC8CED95E09BBD8ABD33
:1003200089B7806189BF7894AC9A2FEF8FE097E20C
:10033000215080409040E1F700C00000AC988CE074
:1003400090E09093650080936400909363008093A5
:10035000620090936100809360002FEF89E698E13E
:10036000215080409040E1F700C0000010926500ED
:10037000109264001092630010926200109261006B
:100380001092600080E190E092DF8C0180E290E0CA
:100390008EDF7C0120E0612C712C212C3AE0C32EF1
:1003A000D12CAA24A394B12C54E6452E512C6BE0F9
:1003B000862E912C83E12B8370D1382E85E06DD170
:1003C0002B8191E069167104A9F0E8F122E0621630
:1003D000710409F067C01092650010926400909259
:1003E00063008092620090926100809260002224FB
:1003F000239458C031101BC02223C9F0882359F020
:1004000084E6E816F10420F49FEFE91AF90A0DC01A
:10041000E12CF12C0AC0E114F10421F021E0E21AF0
:10042000F10803C093E6E92EF12CBA82A982D0929A
:100430006500C0926400C701B60157D17093630094
:10044000609362002AC0311018C02223B1F08823C3
:1004500051F0073E83E0180718F40F5F1F4F0BC0E1
:1004600000E010E008C00115110519F00150110954
:1004700002C007EE13E0BA82A982C801B20135D1E9
:100480007093650060936400B6012FD17093630090
:1004900060936200C801B60128D1909361008093F7
:1004A0006000212C829919C09FEF691A790A23E014
:1004B0006216710410F0612C712C89819A81892B4C
:1004C00051F0B80180E190E0DEDEB70180E290E01B
:1004D000DADE1A821982829BFECF839B02C0232D13
:1004E00069CF222041F0F6DEAC9AC39A839BFECFFF
:1004F000C398AC98F4CFEEDEAC9AC39AC7015EDE27
:10050000C3988AE090E05ADEE5DEC39AC80156DE61
:10051000C398AC9888EC90E051DEE1CF1F920F9227
:100520000FB60F9211242F933F938F939F93AF9306
:10053000BF938091690090916A00A0916B00B09187
:100540006C003091680023E0230F2D3720F40196D2
:10055000A11DB11D05C026E8230F0296A11DB11DE6
:10056000209368008093690090936A00A0936B00C9
:10057000B0936C0080916D0090916E00A0916F001F
:10058000B09170000196A11DB11D80936D009093F4
:100590006E00A0936F00B0937000BF91AF919F91D8
:1005A0008F913F912F910F900FBE0F901F90189534
:1005B0008230910538F0880F991F880F991F059791
:1005C0000197F1F70895789483B7826083BF83B76A
:1005D000816083BF89B7816089BF1EBC8EB5826090
:1005E0008EBD8EB581608EBD8FB581608FBD85B5A6
:1005F000846085BD85B5806485BD329A319A309A14
:10060000379A1AB80895843039F0863049F083302B
:1006100051F48FB58F7702C08FB58F7D8FBD089550
:1006200085B58F7D85BD0895CF93DF9390E0FC0164
:10063000EC5AFF4F2491FC01E859FF4F8491882325
:1006400049F190E0880F991FFC01E057FF4FA591F9
:10065000B4918A579F4FFC01C591D4919FB7611106
:1006600008C0F8948C91209582238C9388818223F2
:100670000AC0623051F4F8948C91322F3095832364
:100680008C938881822B888304C0F8948C91822B70
:100690008C939FBFDF91CF910895CF93DF93282F45
:1006A00030E0F901E05CFF4F8491F901EC5AFF4F13
:1006B000D491F901E859FF4FC491CC2389F08111FD
:1006C000A2DFEC2FF0E0EE0FFF1FE458FF4FA591E3
:1006D000B4912C912D2381E090E021F480E002C0C0
:1006E00080E090E0DF91CF910895AA1BBB1B51E100
:1006F00007C0AA1FBB1FA617B70710F0A61BB70B92
:10070000881F991F5A95A9F780959095BC01CD0136
:100710000895E199FECF9FBB8EBBE09A99278DB3D8
:100720000895262FE199FECF9FBB8EBB2DBB0FB640
:10073000F894E29AE19A0FBE01960895F894FFCFDB
:060740000800080008009B
:00000001FF
